{
  "_format": "hh-sol-artifact-1",
  "contractName": "GemJoin",
  "sourceName": "contracts/SpoutV1/cdp/adapters/GemJoin.sol",
  "abi": [
    {
      "inputs": [
        {
          "internalType": "address",
          "name": "_owner",
          "type": "address"
        },
        {
          "internalType": "address",
          "name": "vat_",
          "type": "address"
        },
        {
          "internalType": "bytes32",
          "name": "ilk_",
          "type": "bytes32"
        },
        {
          "internalType": "address",
          "name": "gem_",
          "type": "address"
        }
      ],
      "stateMutability": "nonpayable",
      "type": "constructor"
    },
    {
      "inputs": [],
      "name": "InvalidAmount",
      "type": "error"
    },
    {
      "inputs": [],
      "name": "NotAuthorized",
      "type": "error"
    },
    {
      "inputs": [],
      "name": "NotLive",
      "type": "error"
    },
    {
      "anonymous": false,
      "inputs": [],
      "name": "Cage",
      "type": "event"
    },
    {
      "anonymous": false,
      "inputs": [
        {
          "indexed": true,
          "internalType": "address",
          "name": "usr",
          "type": "address"
        }
      ],
      "name": "Deny",
      "type": "event"
    },
    {
      "anonymous": false,
      "inputs": [
        {
          "indexed": true,
          "internalType": "uint256",
          "name": "vaultId",
          "type": "uint256"
        },
        {
          "indexed": true,
          "internalType": "address",
          "name": "usr",
          "type": "address"
        },
        {
          "indexed": false,
          "internalType": "uint256",
          "name": "wad",
          "type": "uint256"
        }
      ],
      "name": "Exit",
      "type": "event"
    },
    {
      "anonymous": false,
      "inputs": [
        {
          "indexed": true,
          "internalType": "uint256",
          "name": "vaultId",
          "type": "uint256"
        },
        {
          "indexed": true,
          "internalType": "address",
          "name": "usr",
          "type": "address"
        },
        {
          "indexed": false,
          "internalType": "uint256",
          "name": "wad",
          "type": "uint256"
        }
      ],
      "name": "Join",
      "type": "event"
    },
    {
      "anonymous": false,
      "inputs": [
        {
          "indexed": true,
          "internalType": "address",
          "name": "previousOwner",
          "type": "address"
        },
        {
          "indexed": true,
          "internalType": "address",
          "name": "newOwner",
          "type": "address"
        }
      ],
      "name": "OwnershipTransferred",
      "type": "event"
    },
    {
      "anonymous": false,
      "inputs": [
        {
          "indexed": true,
          "internalType": "address",
          "name": "usr",
          "type": "address"
        }
      ],
      "name": "Rely",
      "type": "event"
    },
    {
      "inputs": [],
      "name": "cage",
      "outputs": [],
      "stateMutability": "nonpayable",
      "type": "function"
    },
    {
      "inputs": [
        {
          "internalType": "address",
          "name": "usr",
          "type": "address"
        }
      ],
      "name": "deny",
      "outputs": [],
      "stateMutability": "nonpayable",
      "type": "function"
    },
    {
      "inputs": [
        {
          "internalType": "uint256",
          "name": "vaultId",
          "type": "uint256"
        },
        {
          "internalType": "address",
          "name": "usr",
          "type": "address"
        },
        {
          "internalType": "uint256",
          "name": "wad",
          "type": "uint256"
        }
      ],
      "name": "exit",
      "outputs": [],
      "stateMutability": "nonpayable",
      "type": "function"
    },
    {
      "inputs": [],
      "name": "gem",
      "outputs": [
        {
          "internalType": "contract IERC20",
          "name": "",
          "type": "address"
        }
      ],
      "stateMutability": "view",
      "type": "function"
    },
    {
      "inputs": [],
      "name": "ilk",
      "outputs": [
        {
          "internalType": "bytes32",
          "name": "",
          "type": "bytes32"
        }
      ],
      "stateMutability": "view",
      "type": "function"
    },
    {
      "inputs": [
        {
          "internalType": "uint256",
          "name": "vaultId",
          "type": "uint256"
        },
        {
          "internalType": "uint256",
          "name": "wad",
          "type": "uint256"
        }
      ],
      "name": "join",
      "outputs": [],
      "stateMutability": "nonpayable",
      "type": "function"
    },
    {
      "inputs": [],
      "name": "live",
      "outputs": [
        {
          "internalType": "uint256",
          "name": "",
          "type": "uint256"
        }
      ],
      "stateMutability": "view",
      "type": "function"
    },
    {
      "inputs": [],
      "name": "owner",
      "outputs": [
        {
          "internalType": "address",
          "name": "",
          "type": "address"
        }
      ],
      "stateMutability": "view",
      "type": "function"
    },
    {
      "inputs": [
        {
          "internalType": "address",
          "name": "usr",
          "type": "address"
        }
      ],
      "name": "rely",
      "outputs": [],
      "stateMutability": "nonpayable",
      "type": "function"
    },
    {
      "inputs": [],
      "name": "renounceOwnership",
      "outputs": [],
      "stateMutability": "nonpayable",
      "type": "function"
    },
    {
      "inputs": [
        {
          "internalType": "address",
          "name": "newOwner",
          "type": "address"
        }
      ],
      "name": "transferOwnership",
      "outputs": [],
      "stateMutability": "nonpayable",
      "type": "function"
    },
    {
      "inputs": [],
      "name": "vat",
      "outputs": [
        {
          "internalType": "contract IVat",
          "name": "",
          "type": "address"
        }
      ],
      "stateMutability": "view",
      "type": "function"
    },
    {
      "inputs": [
        {
          "internalType": "address",
          "name": "",
          "type": "address"
        }
      ],
      "name": "wards",
      "outputs": [
        {
          "internalType": "uint256",
          "name": "",
          "type": "uint256"
        }
      ],
      "stateMutability": "view",
      "type": "function"
    }
  ],
  "bytecode": "0x608060405234801561001057600080fd5b50604051610ecf380380610ecf83398101604081905261002f916100ee565b61003833610082565b6001805561004584610082565b600280546001600160a01b039485166001600160a01b0319918216179091556003929092556004805491909316911617905550600160055561013b565b600080546001600160a01b038381166001600160a01b0319831681178455604051919092169283917f8be0079c531659141344cd1fd0a4f28419497f9722a3daafe3b4186f6b6457e09190a35050565b80516001600160a01b03811681146100e957600080fd5b919050565b6000806000806080858703121561010457600080fd5b61010d856100d2565b935061011b602086016100d2565b925060408501519150610130606086016100d2565b905092959194509250565b610d858061014a6000396000f3fe608060405234801561001057600080fd5b50600436106100cf5760003560e01c80638da5cb5b1161008c578063ad89498211610066578063ad8949821461018a578063bf353dbb1461019d578063c5ce281e146101bd578063f2fde38b146101c657600080fd5b80638da5cb5b1461014f578063957aa58c146101605780639c52a7f11461017757600080fd5b806336569e77146100d457806365fae35e146101045780636924500914610119578063715018a61461012157806379e66b46146101295780637bd2bea71461013c575b600080fd5b6002546100e7906001600160a01b031681565b6040516001600160a01b0390911681526020015b60405180910390f35b610117610112366004610bd3565b6101d9565b005b610117610226565b610117610286565b610117610137366004610bf7565b61029a565b6004546100e7906001600160a01b031681565b6000546001600160a01b03166100e7565b61016960055481565b6040519081526020016100fb565b610117610185366004610bd3565b6104bb565b610117610198366004610c19565b610507565b6101696101ab366004610bd3565b60066020526000908152604090205481565b61016960035481565b6101176101d4366004610bd3565b61073c565b6101e16107b5565b6001600160a01b03811660008181526006602052604080822060019055517fdd0e34038ac38b2a1ce960229778ac48a8719bc900b6c4f8d0475c6e8b385a609190a250565b336000908152600660205260409020546001146102565760405163ea8e4eb560e01b815260040160405180910390fd5b600060058190556040517f2308ed18a14e800c39b86eb6ea43270105955ca385b603b64eca89f98ae8fbda9190a1565b61028e6107b5565b610298600061080f565b565b6102a261085f565b6005546000036102c55760405163baf13b3f60e01b815260040160405180910390fd5b806000036102e65760405163162908e360e11b815260040160405180910390fd5b600254604051632500ed8d60e21b81526004810184905260009182916001600160a01b0390911690639403b63490602401608060405180830381865afa158015610334573d6000803e3d6000fd5b505050506040513d601f19601f820116820180604052508101906103589190610c51565b50509150915060035481146103ab5760405162461bcd60e51b815260206004820152601460248201527308ecada94ded2dc5ed2d8d65adad2e6dac2e8c6d60631b60448201526064015b60405180910390fd5b6001600160a01b03821633146103f75760405162461bcd60e51b815260206004820152601160248201527023b2b6a537b4b717b737ba16b7bbb732b960791b60448201526064016103a2565b600254604051632f228cf560e21b815260048101869052602481018590526001600160a01b039091169063bc8a33d490604401600060405180830381600087803b15801561044457600080fd5b505af1158015610458573d6000803e3d6000fd5b505060045461047592506001600160a01b031690503330866108b8565b604051838152339085907fb3e822478fa19cb993157f15b49a00501cc8d45226c1e7233aef1e281dc567f99060200160405180910390a350506104b760018055565b5050565b6104c36107b5565b6001600160a01b038116600081815260066020526040808220829055517f184450df2e323acec0ed3b5c7531b81f9b4cdef7914dfd4c0a4317416bb5251b9190a250565b61050f61085f565b6005546000036105325760405163baf13b3f60e01b815260040160405180910390fd5b806000036105535760405163162908e360e11b815260040160405180910390fd5b600254604051632500ed8d60e21b81526004810185905260009182916001600160a01b0390911690639403b63490602401608060405180830381865afa1580156105a1573d6000803e3d6000fd5b505050506040513d601f19601f820116820180604052508101906105c59190610c51565b50509150915060035481146106135760405162461bcd60e51b815260206004820152601460248201527308ecada94ded2dc5ed2d8d65adad2e6dac2e8c6d60631b60448201526064016103a2565b6001600160a01b038216331461065f5760405162461bcd60e51b815260206004820152601160248201527023b2b6a537b4b717b737ba16b7bbb732b960791b60448201526064016103a2565b6002546001600160a01b031663bc8a33d48661067a86610c90565b6040516001600160e01b031960e085901b16815260048101929092526024820152604401600060405180830381600087803b1580156106b857600080fd5b505af11580156106cc573d6000803e3d6000fd5b50506004546106e892506001600160a01b031690508585610929565b836001600160a01b0316857f8ab19351d0835bfe294fc519b080c842fca80af27685353eb53bf4e58e502a658560405161072491815260200190565b60405180910390a3505061073760018055565b505050565b6107446107b5565b6001600160a01b0381166107a95760405162461bcd60e51b815260206004820152602660248201527f4f776e61626c653a206e6577206f776e657220697320746865207a65726f206160448201526564647265737360d01b60648201526084016103a2565b6107b28161080f565b50565b6000546001600160a01b031633146102985760405162461bcd60e51b815260206004820181905260248201527f4f776e61626c653a2063616c6c6572206973206e6f7420746865206f776e657260448201526064016103a2565b600080546001600160a01b038381166001600160a01b0319831681178455604051919092169283917f8be0079c531659141344cd1fd0a4f28419497f9722a3daafe3b4186f6b6457e09190a35050565b6002600154036108b15760405162461bcd60e51b815260206004820152601f60248201527f5265656e7472616e637947756172643a207265656e7472616e742063616c6c0060448201526064016103a2565b6002600155565b6040516001600160a01b03808516602483015283166044820152606481018290526109239085906323b872dd60e01b906084015b60408051601f198184030181529190526020810180516001600160e01b03166001600160e01b031990931692909217909152610959565b50505050565b6040516001600160a01b03831660248201526044810182905261073790849063a9059cbb60e01b906064016108ec565b60006109ae826040518060400160405280602081526020017f5361666545524332303a206c6f772d6c6576656c2063616c6c206661696c6564815250856001600160a01b0316610a2e9092919063ffffffff16565b90508051600014806109cf5750808060200190518101906109cf9190610cba565b6107375760405162461bcd60e51b815260206004820152602a60248201527f5361666545524332303a204552433230206f7065726174696f6e20646964206e6044820152691bdd081cdd58d8d9595960b21b60648201526084016103a2565b6060610a3d8484600085610a45565b949350505050565b606082471015610aa65760405162461bcd60e51b815260206004820152602660248201527f416464726573733a20696e73756666696369656e742062616c616e636520666f6044820152651c8818d85b1b60d21b60648201526084016103a2565b600080866001600160a01b03168587604051610ac29190610d00565b60006040518083038185875af1925050503d8060008114610aff576040519150601f19603f3d011682016040523d82523d6000602084013e610b04565b606091505b5091509150610b1587838387610b20565b979650505050505050565b60608315610b8f578251600003610b88576001600160a01b0385163b610b885760405162461bcd60e51b815260206004820152601d60248201527f416464726573733a2063616c6c20746f206e6f6e2d636f6e747261637400000060448201526064016103a2565b5081610a3d565b610a3d8383815115610ba45781518083602001fd5b8060405162461bcd60e51b81526004016103a29190610d1c565b6001600160a01b03811681146107b257600080fd5b600060208284031215610be557600080fd5b8135610bf081610bbe565b9392505050565b60008060408385031215610c0a57600080fd5b50508035926020909101359150565b600080600060608486031215610c2e57600080fd5b833592506020840135610c4081610bbe565b929592945050506040919091013590565b60008060008060808587031215610c6757600080fd5b8451610c7281610bbe565b60208601516040870151606090970151919890975090945092505050565b6000600160ff1b8201610cb357634e487b7160e01b600052601160045260246000fd5b5060000390565b600060208284031215610ccc57600080fd5b81518015158114610bf057600080fd5b60005b83811015610cf7578181015183820152602001610cdf565b50506000910152565b60008251610d12818460208701610cdc565b9190910192915050565b6020815260008251806020840152610d3b816040850160208701610cdc565b601f01601f1916919091016040019291505056fea26469706673582212201b2df170e9e3c0dce3d40e2c978d38d88d9582ed2254e48d12f4fcd5e1cc757564736f6c634300081c0033",
  "linkReferences": {},
  "deployedLinkReferences": {}
}